:100000000BC024C023C022C021C020C01FC01EC0FE
:100010001DC01CC01BC01AC011241FBECFEDCDBF18
:1000200010E0A0E6B0E0E0E1F1E003C0C895319651
:100030000D92A036B107D1F710E0A0E6B0E001C004
:100040001D92A036B107E1F702D060C0D9CF86E09B
:1000500087BB18BA80E4E7EC77EA41E133E161E07D
:10006000582F3699FECF24B195B157B9E6B97FB96B
:100070004DB93DB94DB93DB94DB93DB94DB93DB990
:100080004DB93DB94DB93DB94DB93DB94DB93DB980
:100090006FB94DB93DB94DB93DB94DB93DB94DB93E
:1000A0003DB94DB93DB94DB93DB94DB93DB94DB960
:1000B0003DB9852F8295807F892B8FB94DB93DB988
:1000C0004DB93DB94DB93DB94DB93DB94DB93DB940
:1000D0004DB93DB94DB93DB94DB93DB92FB94DB93E
:1000E0003DB94DB93DB94DB93DB94DB93DB94DB920
:1000F0003DB94DB93DB94DB93DB94DB93DB9852F62
:100100008F5F50E48A3409F0ABCFABCFF894FFCFC8
:00000001FF
